{
  "_format": "hh-sol-artifact-1",
  "contractName": "SaccoToken",
  "sourceName": "contracts/SaccoToken.sol",
  "abi": [
    {
      "inputs": [
        {
          "internalType": "uint256",
          "name": "initialSupply",
          "type": "uint256"
        },
        {
          "internalType": "uint256",
          "name": "_maxTokensForSale",
          "type": "uint256"
        }
      ],
      "stateMutability": "nonpayable",
      "type": "constructor"
    },
    {
      "inputs": [
        {
          "internalType": "address",
          "name": "spender",
          "type": "address"
        },
        {
          "internalType": "uint256",
          "name": "allowance",
          "type": "uint256"
        },
        {
          "internalType": "uint256",
          "name": "needed",
          "type": "uint256"
        }
      ],
      "name": "ERC20InsufficientAllowance",
      "type": "error"
    },
    {
      "inputs": [
        {
          "internalType": "address",
          "name": "sender",
          "type": "address"
        },
        {
          "internalType": "uint256",
          "name": "balance",
          "type": "uint256"
        },
        {
          "internalType": "uint256",
          "name": "needed",
          "type": "uint256"
        }
      ],
      "name": "ERC20InsufficientBalance",
      "type": "error"
    },
    {
      "inputs": [
        {
          "internalType": "address",
          "name": "approver",
          "type": "address"
        }
      ],
      "name": "ERC20InvalidApprover",
      "type": "error"
    },
    {
      "inputs": [
        {
          "internalType": "address",
          "name": "receiver",
          "type": "address"
        }
      ],
      "name": "ERC20InvalidReceiver",
      "type": "error"
    },
    {
      "inputs": [
        {
          "internalType": "address",
          "name": "sender",
          "type": "address"
        }
      ],
      "name": "ERC20InvalidSender",
      "type": "error"
    },
    {
      "inputs": [
        {
          "internalType": "address",
          "name": "spender",
          "type": "address"
        }
      ],
      "name": "ERC20InvalidSpender",
      "type": "error"
    },
    {
      "anonymous": false,
      "inputs": [
        {
          "indexed": true,
          "internalType": "address",
          "name": "owner",
          "type": "address"
        },
        {
          "indexed": true,
          "internalType": "address",
          "name": "spender",
          "type": "address"
        },
        {
          "indexed": false,
          "internalType": "uint256",
          "name": "value",
          "type": "uint256"
        }
      ],
      "name": "Approval",
      "type": "event"
    },
    {
      "anonymous": false,
      "inputs": [
        {
          "indexed": true,
          "internalType": "address",
          "name": "from",
          "type": "address"
        },
        {
          "indexed": true,
          "internalType": "address",
          "name": "to",
          "type": "address"
        },
        {
          "indexed": false,
          "internalType": "uint256",
          "name": "value",
          "type": "uint256"
        }
      ],
      "name": "Transfer",
      "type": "event"
    },
    {
      "inputs": [
        {
          "internalType": "address",
          "name": "owner",
          "type": "address"
        },
        {
          "internalType": "address",
          "name": "spender",
          "type": "address"
        }
      ],
      "name": "allowance",
      "outputs": [
        {
          "internalType": "uint256",
          "name": "",
          "type": "uint256"
        }
      ],
      "stateMutability": "view",
      "type": "function"
    },
    {
      "inputs": [
        {
          "internalType": "address",
          "name": "spender",
          "type": "address"
        },
        {
          "internalType": "uint256",
          "name": "value",
          "type": "uint256"
        }
      ],
      "name": "approve",
      "outputs": [
        {
          "internalType": "bool",
          "name": "",
          "type": "bool"
        }
      ],
      "stateMutability": "nonpayable",
      "type": "function"
    },
    {
      "inputs": [
        {
          "internalType": "address",
          "name": "account",
          "type": "address"
        }
      ],
      "name": "balanceOf",
      "outputs": [
        {
          "internalType": "uint256",
          "name": "",
          "type": "uint256"
        }
      ],
      "stateMutability": "view",
      "type": "function"
    },
    {
      "inputs": [
        {
          "internalType": "uint256",
          "name": "amount",
          "type": "uint256"
        }
      ],
      "name": "burn",
      "outputs": [],
      "stateMutability": "nonpayable",
      "type": "function"
    },
    {
      "inputs": [],
      "name": "decimals",
      "outputs": [
        {
          "internalType": "uint8",
          "name": "",
          "type": "uint8"
        }
      ],
      "stateMutability": "view",
      "type": "function"
    },
    {
      "inputs": [],
      "name": "maxTokensForSale",
      "outputs": [
        {
          "internalType": "uint256",
          "name": "",
          "type": "uint256"
        }
      ],
      "stateMutability": "view",
      "type": "function"
    },
    {
      "inputs": [
        {
          "internalType": "address",
          "name": "to",
          "type": "address"
        },
        {
          "internalType": "uint256",
          "name": "amount",
          "type": "uint256"
        }
      ],
      "name": "mint",
      "outputs": [],
      "stateMutability": "nonpayable",
      "type": "function"
    },
    {
      "inputs": [],
      "name": "name",
      "outputs": [
        {
          "internalType": "string",
          "name": "",
          "type": "string"
        }
      ],
      "stateMutability": "view",
      "type": "function"
    },
    {
      "inputs": [
        {
          "internalType": "uint256",
          "name": "newLimit",
          "type": "uint256"
        }
      ],
      "name": "setMaxTokensForSale",
      "outputs": [],
      "stateMutability": "nonpayable",
      "type": "function"
    },
    {
      "inputs": [],
      "name": "symbol",
      "outputs": [
        {
          "internalType": "string",
          "name": "",
          "type": "string"
        }
      ],
      "stateMutability": "view",
      "type": "function"
    },
    {
      "inputs": [],
      "name": "totalSupply",
      "outputs": [
        {
          "internalType": "uint256",
          "name": "",
          "type": "uint256"
        }
      ],
      "stateMutability": "view",
      "type": "function"
    },
    {
      "inputs": [
        {
          "internalType": "address",
          "name": "to",
          "type": "address"
        },
        {
          "internalType": "uint256",
          "name": "value",
          "type": "uint256"
        }
      ],
      "name": "transfer",
      "outputs": [
        {
          "internalType": "bool",
          "name": "",
          "type": "bool"
        }
      ],
      "stateMutability": "nonpayable",
      "type": "function"
    },
    {
      "inputs": [
        {
          "internalType": "address",
          "name": "from",
          "type": "address"
        },
        {
          "internalType": "address",
          "name": "to",
          "type": "address"
        },
        {
          "internalType": "uint256",
          "name": "value",
          "type": "uint256"
        }
      ],
      "name": "transferFrom",
      "outputs": [
        {
          "internalType": "bool",
          "name": "",
          "type": "bool"
        }
      ],
      "stateMutability": "nonpayable",
      "type": "function"
    }
  ],
  "bytecode": "0x60806040523480156200001157600080fd5b5060405162000c9c38038062000c9c833981016040819052620000349162000229565b6040518060400160405280600a81526020016929b0b1b1b7aa37b5b2b760b11b81525060405180604001604052806005815260200164534143434f60d81b8152508160039081620000869190620002f3565b506004620000958282620002f3565b505050620000aa3383620000b460201b60201c565b60055550620003e7565b6001600160a01b038216620000e45760405163ec442f0560e01b8152600060048201526024015b60405180910390fd5b620000f260008383620000f6565b5050565b6001600160a01b03831662000125578060026000828254620001199190620003bf565b90915550620001999050565b6001600160a01b038316600090815260208190526040902054818110156200017a5760405163391434e360e21b81526001600160a01b03851660048201526024810182905260448101839052606401620000db565b6001600160a01b03841660009081526020819052604090209082900390555b6001600160a01b038216620001b757600280548290039055620001d6565b6001600160a01b03821660009081526020819052604090208054820190555b816001600160a01b0316836001600160a01b03167fddf252ad1be2c89b69c2b068fc378daa952ba7f163c4a11628f55a4df523b3ef836040516200021c91815260200190565b60405180910390a3505050565b600080604083850312156200023d57600080fd5b505080516020909101519092909150565b634e487b7160e01b600052604160045260246000fd5b600181811c908216806200027957607f821691505b6020821081036200029a57634e487b7160e01b600052602260045260246000fd5b50919050565b601f821115620002ee57600081815260208120601f850160051c81016020861015620002c95750805b601f850160051c820191505b81811015620002ea57828155600101620002d5565b5050505b505050565b81516001600160401b038111156200030f576200030f6200024e565b620003278162000320845462000264565b84620002a0565b602080601f8311600181146200035f5760008415620003465750858301515b600019600386901b1c1916600185901b178555620002ea565b600085815260208120601f198616915b8281101562000390578886015182559484019460019091019084016200036f565b5085821015620003af5787850151600019600388901b60f8161c191681555b5050505050600190811b01905550565b80820180821115620003e157634e487b7160e01b600052601160045260246000fd5b92915050565b6108a580620003f76000396000f3fe608060405234801561001057600080fd5b50600436106100cf5760003560e01c806342966c681161008c57806397f2f5c31161006657806397f2f5c3146101a2578063994a5426146101ab578063a9059cbb146101be578063dd62ed3e146101d157600080fd5b806342966c681461015e57806370a082311461017157806395d89b411461019a57600080fd5b806306fdde03146100d4578063095ea7b3146100f257806318160ddd1461011557806323b872dd14610127578063313ce5671461013a57806340c10f1914610149575b600080fd5b6100dc61020a565b6040516100e991906106d6565b60405180910390f35b610105610100366004610740565b61029c565b60405190151581526020016100e9565b6002545b6040519081526020016100e9565b61010561013536600461076a565b6102b6565b604051601281526020016100e9565b61015c610157366004610740565b6102da565b005b61015c61016c3660046107a6565b610352565b61011961017f3660046107bf565b6001600160a01b031660009081526020819052604090205490565b6100dc61035f565b61011960055481565b61015c6101b93660046107a6565b600555565b6101056101cc366004610740565b61036e565b6101196101df3660046107e1565b6001600160a01b03918216600090815260016020908152604080832093909416825291909152205490565b60606003805461021990610814565b80601f016020809104026020016040519081016040528092919081815260200182805461024590610814565b80156102925780601f1061026757610100808354040283529160200191610292565b820191906000526020600020905b81548152906001019060200180831161027557829003601f168201915b5050505050905090565b6000336102aa81858561037c565b60019150505b92915050565b6000336102c485828561038e565b6102cf85858561040c565b506001949350505050565b600554816102e760025490565b6102f1919061084e565b11156103445760405162461bcd60e51b815260206004820152601b60248201527f45786365656473206d617820746f6b656e7320666f722073616c65000000000060448201526064015b60405180910390fd5b61034e828261046b565b5050565b61035c33826104a1565b50565b60606004805461021990610814565b6000336102aa81858561040c565b61038983838360016104d7565b505050565b6001600160a01b03838116600090815260016020908152604080832093861683529290522054600019811461040657818110156103f757604051637dc7a0d960e11b81526001600160a01b0384166004820152602481018290526044810183905260640161033b565b610406848484840360006104d7565b50505050565b6001600160a01b03831661043657604051634b637e8f60e11b81526000600482015260240161033b565b6001600160a01b0382166104605760405163ec442f0560e01b81526000600482015260240161033b565b6103898383836105ac565b6001600160a01b0382166104955760405163ec442f0560e01b81526000600482015260240161033b565b61034e600083836105ac565b6001600160a01b0382166104cb57604051634b637e8f60e11b81526000600482015260240161033b565b61034e826000836105ac565b6001600160a01b0384166105015760405163e602df0560e01b81526000600482015260240161033b565b6001600160a01b03831661052b57604051634a1406b160e11b81526000600482015260240161033b565b6001600160a01b038085166000908152600160209081526040808320938716835292905220829055801561040657826001600160a01b0316846001600160a01b03167f8c5be1e5ebec7d5bd14f71427d1e84f3dd0314c0f7b2291e5b200ac8c7c3b9258460405161059e91815260200190565b60405180910390a350505050565b6001600160a01b0383166105d75780600260008282546105cc919061084e565b909155506106499050565b6001600160a01b0383166000908152602081905260409020548181101561062a5760405163391434e360e21b81526001600160a01b0385166004820152602481018290526044810183905260640161033b565b6001600160a01b03841660009081526020819052604090209082900390555b6001600160a01b03821661066557600280548290039055610684565b6001600160a01b03821660009081526020819052604090208054820190555b816001600160a01b0316836001600160a01b03167fddf252ad1be2c89b69c2b068fc378daa952ba7f163c4a11628f55a4df523b3ef836040516106c991815260200190565b60405180910390a3505050565b600060208083528351808285015260005b81811015610703578581018301518582016040015282016106e7565b506000604082860101526040601f19601f8301168501019250505092915050565b80356001600160a01b038116811461073b57600080fd5b919050565b6000806040838503121561075357600080fd5b61075c83610724565b946020939093013593505050565b60008060006060848603121561077f57600080fd5b61078884610724565b925061079660208501610724565b9150604084013590509250925092565b6000602082840312156107b857600080fd5b5035919050565b6000602082840312156107d157600080fd5b6107da82610724565b9392505050565b600080604083850312156107f457600080fd5b6107fd83610724565b915061080b60208401610724565b90509250929050565b600181811c9082168061082857607f821691505b60208210810361084857634e487b7160e01b600052602260045260246000fd5b50919050565b808201808211156102b057634e487b7160e01b600052601160045260246000fdfea264697066735822122054058c6b4f6ee6d145ece17380e8de360963472ddbfa9a9a7d9f7cb1a7a26b5364736f6c63430008140033",
  "linkReferences": {},
  "deployedLinkReferences": {}
}